{
  "_format": "hh-sol-artifact-1",
  "contractName": "interact",
  "sourceName": "contracts/main.sol",
  "abi": [
    {
      "inputs": [
        {
          "internalType": "address",
          "name": "asset",
          "type": "address"
        },
        {
          "internalType": "uint256",
          "name": "amount",
          "type": "uint256"
        },
        {
          "internalType": "uint256",
          "name": "interestRateMode",
          "type": "uint256"
        },
        {
          "internalType": "uint16",
          "name": "referralCode",
          "type": "uint16"
        }
      ],
      "name": "iborrow",
      "outputs": [],
      "stateMutability": "nonpayable",
      "type": "function"
    },
    {
      "inputs": [
        {
          "internalType": "address",
          "name": "asset",
          "type": "address"
        },
        {
          "internalType": "uint256",
          "name": "amount",
          "type": "uint256"
        },
        {
          "internalType": "uint256",
          "name": "rateMode",
          "type": "uint256"
        }
      ],
      "name": "irepay",
      "outputs": [],
      "stateMutability": "nonpayable",
      "type": "function"
    },
    {
      "inputs": [
        {
          "internalType": "address",
          "name": "_asset",
          "type": "address"
        },
        {
          "internalType": "uint256",
          "name": "_amount",
          "type": "uint256"
        },
        {
          "internalType": "uint16",
          "name": "_referralCode",
          "type": "uint16"
        }
      ],
      "name": "isupply",
      "outputs": [],
      "stateMutability": "nonpayable",
      "type": "function"
    },
    {
      "inputs": [
        {
          "internalType": "address",
          "name": "asset",
          "type": "address"
        },
        {
          "internalType": "uint256",
          "name": "amount",
          "type": "uint256"
        },
        {
          "internalType": "address",
          "name": "to",
          "type": "address"
        }
      ],
      "name": "iwithdraw",
      "outputs": [],
      "stateMutability": "nonpayable",
      "type": "function"
    },
    {
      "inputs": [
        {
          "internalType": "address",
          "name": "_asset",
          "type": "address"
        }
      ],
      "name": "mybalance",
      "outputs": [
        {
          "internalType": "uint256",
          "name": "",
          "type": "uint256"
        }
      ],
      "stateMutability": "view",
      "type": "function"
    }
  ],
  "bytecode": "0x6080604052737d2768de32b0b80b7a3454c06bdac94a69ddc7a96000806101000a81548173ffffffffffffffffffffffffffffffffffffffff021916908373ffffffffffffffffffffffffffffffffffffffff160217905550737d2768de32b0b80b7a3454c06bdac94a69ddc7a9600160006101000a81548173ffffffffffffffffffffffffffffffffffffffff021916908373ffffffffffffffffffffffffffffffffffffffff1602179055503480156100b957600080fd5b5061119e806100c96000396000f3fe608060405234801561001057600080fd5b50600436106100575760003560e01c8063084525451461005c57806311d3f3611461007857806330ae82eb146100945780633c306250146100b0578063551511fa146100e0575b600080fd5b61007660048036038101906100719190610c17565b6100fc565b005b610092600480360381019061008d9190610b79565b61030e565b005b6100ae60048036038101906100a99190610bc8565b610466565b005b6100ca60048036038101906100c59190610b50565b6106c3565b6040516100d79190610fe9565b60405180910390f35b6100fa60048036038101906100f59190610c66565b6108e0565b005b60008390508073ffffffffffffffffffffffffffffffffffffffff166323b872dd3330866040518463ffffffff1660e01b815260040161013e93929190610de2565b602060405180830381600087803b15801561015857600080fd5b505af115801561016c573d6000803e3d6000fd5b505050506040513d601f19601f820116820180604052508101906101909190610cc9565b61019957600080fd5b60008060009054906101000a900473ffffffffffffffffffffffffffffffffffffffff1690508173ffffffffffffffffffffffffffffffffffffffff1663095ea7b360008054906101000a900473ffffffffffffffffffffffffffffffffffffffff16866040518363ffffffff1660e01b815260040161021a929190610e19565b602060405180830381600087803b15801561023457600080fd5b505af1158015610248573d6000803e3d6000fd5b505050506040513d601f19601f8201168201806040525081019061026c9190610cc9565b61027557600080fd5b8073ffffffffffffffffffffffffffffffffffffffff1663573ade81868686306040518563ffffffff1660e01b81526004016102b49493929190610ebe565b602060405180830381600087803b1580156102ce57600080fd5b505af11580156102e2573d6000803e3d6000fd5b505050506040513d601f19601f820116820180604052508101906103069190610cf2565b505050505050565b600083905060008060009054906101000a900473ffffffffffffffffffffffffffffffffffffffff1690508073ffffffffffffffffffffffffffffffffffffffff166369328dec8686306040518463ffffffff1660e01b815260040161037693929190610e42565b602060405180830381600087803b15801561039057600080fd5b505af11580156103a4573d6000803e3d6000fd5b505050506040513d601f19601f820116820180604052508101906103c89190610cf2565b508173ffffffffffffffffffffffffffffffffffffffff1663a9059cbb84866040518363ffffffff1660e01b8152600401610404929190610e19565b602060405180830381600087803b15801561041e57600080fd5b505af1158015610432573d6000803e3d6000fd5b505050506040513d601f19601f820116820180604052508101906104569190610cc9565b61045f57600080fd5b5050505050565b60008390508073ffffffffffffffffffffffffffffffffffffffff166323b872dd3330866040518463ffffffff1660e01b81526004016104a893929190610de2565b602060405180830381600087803b1580156104c257600080fd5b505af11580156104d6573d6000803e3d6000fd5b505050506040513d601f19601f820116820180604052508101906104fa9190610cc9565b610539576040517f08c379a000000000000000000000000000000000000000000000000000000000815260040161053090610fc9565b60405180910390fd5b60008060009054906101000a900473ffffffffffffffffffffffffffffffffffffffff1690508173ffffffffffffffffffffffffffffffffffffffff1663095ea7b360008054906101000a900473ffffffffffffffffffffffffffffffffffffffff16866040518363ffffffff1660e01b81526004016105ba929190610e19565b602060405180830381600087803b1580156105d457600080fd5b505af11580156105e8573d6000803e3d6000fd5b505050506040513d601f19601f8201168201806040525081019061060c9190610cc9565b61064b576040517f08c379a000000000000000000000000000000000000000000000000000000000815260040161064290610fa9565b60405180910390fd5b8073ffffffffffffffffffffffffffffffffffffffff1663e8eda9df868630876040518563ffffffff1660e01b815260040161068a9493929190610e79565b600060405180830381600087803b1580156106a457600080fd5b505af11580156106b8573d6000803e3d6000fd5b505050505050505050565b60008082905061084f6040518060400160405280601081526020017f73656e646572732062616c616e63653a000000000000000000000000000000008152508273ffffffffffffffffffffffffffffffffffffffff166370a08231336040518263ffffffff1660e01b815260040161073b9190610dc7565b60206040518083038186803b15801561075357600080fd5b505afa158015610767573d6000803e3d6000fd5b505050506040513d601f19601f8201168201806040525081019061078b9190610cf2565b6040518060400160405280601381526020017f636f6e747261637427732062616c616e63653a000000000000000000000000008152508473ffffffffffffffffffffffffffffffffffffffff166370a08231306040518263ffffffff1660e01b81526004016107fa9190610dc7565b60206040518083038186803b15801561081257600080fd5b505afa158015610826573d6000803e3d6000fd5b505050506040513d601f19601f8201168201806040525081019061084a9190610cf2565b610a1c565b8073ffffffffffffffffffffffffffffffffffffffff166370a08231306040518263ffffffff1660e01b81526004016108889190610dc7565b60206040518083038186803b1580156108a057600080fd5b505afa1580156108b4573d6000803e3d6000fd5b505050506040513d601f19601f820116820180604052508101906108d89190610cf2565b915050919050565b600084905060008060009054906101000a900473ffffffffffffffffffffffffffffffffffffffff1690508073ffffffffffffffffffffffffffffffffffffffff1663a415bcad87878787306040518663ffffffff1660e01b815260040161094c959493929190610f03565b600060405180830381600087803b15801561096657600080fd5b505af115801561097a573d6000803e3d6000fd5b505050508173ffffffffffffffffffffffffffffffffffffffff1663a9059cbb33876040518363ffffffff1660e01b81526004016109b9929190610e19565b602060405180830381600087803b1580156109d357600080fd5b505af11580156109e7573d6000803e3d6000fd5b505050506040513d601f19601f82011682018060405250810190610a0b9190610cc9565b610a1457600080fd5b505050505050565b610ab884848484604051602401610a369493929190610f56565b6040516020818303038152906040527fa0c4b225000000000000000000000000000000000000000000000000000000007bffffffffffffffffffffffffffffffffffffffffffffffffffffffff19166020820180517bffffffffffffffffffffffffffffffffffffffffffffffffffffffff8381831617835250505050610abe565b50505050565b60008151905060006a636f6e736f6c652e6c6f679050602083016000808483855afa5050505050565b600081359050610af68161110c565b92915050565b600081519050610b0b81611123565b92915050565b600081359050610b208161113a565b92915050565b600081359050610b3581611151565b92915050565b600081519050610b4a81611151565b92915050565b600060208284031215610b6257600080fd5b6000610b7084828501610ae7565b91505092915050565b600080600060608486031215610b8e57600080fd5b6000610b9c86828701610ae7565b9350506020610bad86828701610b26565b9250506040610bbe86828701610ae7565b9150509250925092565b600080600060608486031215610bdd57600080fd5b6000610beb86828701610ae7565b9350506020610bfc86828701610b26565b9250506040610c0d86828701610b11565b9150509250925092565b600080600060608486031215610c2c57600080fd5b6000610c3a86828701610ae7565b9350506020610c4b86828701610b26565b9250506040610c5c86828701610b26565b9150509250925092565b60008060008060808587031215610c7c57600080fd5b6000610c8a87828801610ae7565b9450506020610c9b87828801610b26565b9350506040610cac87828801610b26565b9250506060610cbd87828801610b11565b91505092959194509250565b600060208284031215610cdb57600080fd5b6000610ce984828501610afc565b91505092915050565b600060208284031215610d0457600080fd5b6000610d1284828501610b3b565b91505092915050565b610d2481611020565b82525050565b6000610d3582611004565b610d3f818561100f565b9350610d4f818560208601611076565b610d58816110a9565b840191505092915050565b6000610d70600c8361100f565b9150610d7b826110ba565b602082019050919050565b6000610d93601e8361100f565b9150610d9e826110e3565b602082019050919050565b610db28161103e565b82525050565b610dc18161106c565b82525050565b6000602082019050610ddc6000830184610d1b565b92915050565b6000606082019050610df76000830186610d1b565b610e046020830185610d1b565b610e116040830184610db8565b949350505050565b6000604082019050610e2e6000830185610d1b565b610e3b6020830184610db8565b9392505050565b6000606082019050610e576000830186610d1b565b610e646020830185610db8565b610e716040830184610d1b565b949350505050565b6000608082019050610e8e6000830187610d1b565b610e9b6020830186610db8565b610ea86040830185610d1b565b610eb56060830184610da9565b95945050505050565b6000608082019050610ed36000830187610d1b565b610ee06020830186610db8565b610eed6040830185610db8565b610efa6060830184610d1b565b95945050505050565b600060a082019050610f186000830188610d1b565b610f256020830187610db8565b610f326040830186610db8565b610f3f6060830185610da9565b610f4c6080830184610d1b565b9695505050505050565b60006080820190508181036000830152610f708187610d2a565b9050610f7f6020830186610db8565b8181036040830152610f918185610d2a565b9050610fa06060830184610db8565b95945050505050565b60006020820190508181036000830152610fc281610d63565b9050919050565b60006020820190508181036000830152610fe281610d86565b9050919050565b6000602082019050610ffe6000830184610db8565b92915050565b600081519050919050565b600082825260208201905092915050565b600061102b8261104c565b9050919050565b60008115159050919050565b600061ffff82169050919050565b600073ffffffffffffffffffffffffffffffffffffffff82169050919050565b6000819050919050565b60005b83811015611094578082015181840152602081019050611079565b838111156110a3576000848401525b50505050565b6000601f19601f8301169050919050565b7f4e6f7420617070726f7665640000000000000000000000000000000000000000600082015250565b7f596f7520646f206e6f74206861766520656e6f7567682062616c616e63650000600082015250565b61111581611020565b811461112057600080fd5b50565b61112c81611032565b811461113757600080fd5b50565b6111438161103e565b811461114e57600080fd5b50565b61115a8161106c565b811461116557600080fd5b5056fea2646970667358221220fba007c163e2064f0391bf02f80c10999809a093321df55a4553301d070f62f864736f6c63430008040033",
  "linkReferences": {},
  "deployedLinkReferences": {}
}