{
  "_format": "hh-sol-artifact-1",
  "contractName": "interact",
  "sourceName": "contracts/main.sol",
  "abi": [
    {
      "inputs": [],
      "name": "getstate",
      "outputs": [],
      "stateMutability": "view",
      "type": "function"
    },
    {
      "inputs": [
        {
          "internalType": "address",
          "name": "asset",
          "type": "address"
        },
        {
          "internalType": "address",
          "name": "recieve",
          "type": "address"
        },
        {
          "internalType": "uint256",
          "name": "amount",
          "type": "uint256"
        },
        {
          "internalType": "uint256",
          "name": "interestRateMode",
          "type": "uint256"
        },
        {
          "internalType": "uint16",
          "name": "referralCode",
          "type": "uint16"
        }
      ],
      "name": "iborrow",
      "outputs": [],
      "stateMutability": "nonpayable",
      "type": "function"
    },
    {
      "inputs": [
        {
          "internalType": "address",
          "name": "asset",
          "type": "address"
        },
        {
          "internalType": "uint256",
          "name": "amount",
          "type": "uint256"
        },
        {
          "internalType": "uint256",
          "name": "rateMode",
          "type": "uint256"
        }
      ],
      "name": "irepay",
      "outputs": [],
      "stateMutability": "nonpayable",
      "type": "function"
    },
    {
      "inputs": [
        {
          "internalType": "address",
          "name": "_asset",
          "type": "address"
        },
        {
          "internalType": "uint256",
          "name": "_amount",
          "type": "uint256"
        },
        {
          "internalType": "uint16",
          "name": "_referralCode",
          "type": "uint16"
        }
      ],
      "name": "isupply",
      "outputs": [],
      "stateMutability": "nonpayable",
      "type": "function"
    },
    {
      "inputs": [
        {
          "internalType": "address",
          "name": "asset",
          "type": "address"
        },
        {
          "internalType": "uint256",
          "name": "amount",
          "type": "uint256"
        },
        {
          "internalType": "address",
          "name": "to",
          "type": "address"
        }
      ],
      "name": "iwithdraw",
      "outputs": [],
      "stateMutability": "nonpayable",
      "type": "function"
    },
    {
      "inputs": [
        {
          "internalType": "address",
          "name": "_asset",
          "type": "address"
        }
      ],
      "name": "mybalance",
      "outputs": [
        {
          "internalType": "uint256",
          "name": "",
          "type": "uint256"
        }
      ],
      "stateMutability": "view",
      "type": "function"
    },
    {
      "inputs": [
        {
          "internalType": "address",
          "name": "asset",
          "type": "address"
        },
        {
          "internalType": "uint256",
          "name": "amount",
          "type": "uint256"
        }
      ],
      "name": "transferfrom",
      "outputs": [],
      "stateMutability": "nonpayable",
      "type": "function"
    }
  ],
  "bytecode": "0x6080604052737d2768de32b0b80b7a3454c06bdac94a69ddc7a96000806101000a81548173ffffffffffffffffffffffffffffffffffffffff021916908373ffffffffffffffffffffffffffffffffffffffff160217905550737d2768de32b0b80b7a3454c06bdac94a69ddc7a9600160006101000a81548173ffffffffffffffffffffffffffffffffffffffff021916908373ffffffffffffffffffffffffffffffffffffffff16021790555073028171bca77440897b824ca71d1c56cac55b68a3600260006101000a81548173ffffffffffffffffffffffffffffffffffffffff021916908373ffffffffffffffffffffffffffffffffffffffff16021790555034801561010e57600080fd5b506118ea8061011e6000396000f3fe608060405234801561001057600080fd5b506004361061007d5760003560e01c806330ae82eb1161005b57806330ae82eb146100c4578063362dc8a6146100e05780633c306250146100fc5780638620d0551461012c5761007d565b8063084525451461008257806311d3f3611461009e578063296d9ac2146100ba575b600080fd5b61009c6004803603810190610097919061129e565b610148565b005b6100b860048036038101906100b39190611200565b61035a565b005b6100c26104b2565b005b6100de60048036038101906100d9919061124f565b6105a1565b005b6100fa60048036038101906100f591906111c4565b6108c5565b005b61011660048036038101906101119190611124565b610aed565b60405161012391906116fe565b60405180910390f35b6101466004803603810190610141919061114d565b610d0a565b005b60008390508073ffffffffffffffffffffffffffffffffffffffff166323b872dd3330866040518463ffffffff1660e01b815260040161018a9392919061149e565b602060405180830381600087803b1580156101a457600080fd5b505af11580156101b8573d6000803e3d6000fd5b505050506040513d601f19601f820116820180604052508101906101dc91906112ed565b6101e557600080fd5b60008060009054906101000a900473ffffffffffffffffffffffffffffffffffffffff1690508173ffffffffffffffffffffffffffffffffffffffff1663095ea7b360008054906101000a900473ffffffffffffffffffffffffffffffffffffffff16866040518363ffffffff1660e01b81526004016102669291906114fe565b602060405180830381600087803b15801561028057600080fd5b505af1158015610294573d6000803e3d6000fd5b505050506040513d601f19601f820116820180604052508101906102b891906112ed565b6102c157600080fd5b8073ffffffffffffffffffffffffffffffffffffffff1663573ade81868686306040518563ffffffff1660e01b815260040161030094939291906115a3565b602060405180830381600087803b15801561031a57600080fd5b505af115801561032e573d6000803e3d6000fd5b505050506040513d601f19601f820116820180604052508101906103529190611316565b505050505050565b600083905060008060009054906101000a900473ffffffffffffffffffffffffffffffffffffffff1690508073ffffffffffffffffffffffffffffffffffffffff166369328dec8686306040518463ffffffff1660e01b81526004016103c293929190611527565b602060405180830381600087803b1580156103dc57600080fd5b505af11580156103f0573d6000803e3d6000fd5b505050506040513d601f19601f820116820180604052508101906104149190611316565b508173ffffffffffffffffffffffffffffffffffffffff1663a9059cbb84866040518363ffffffff1660e01b81526004016104509291906114fe565b602060405180830381600087803b15801561046a57600080fd5b505af115801561047e573d6000803e3d6000fd5b505050506040513d601f19601f820116820180604052508101906104a291906112ed565b6104ab57600080fd5b5050505050565b60008060009054906101000a900473ffffffffffffffffffffffffffffffffffffffff1690506000806000806000808673ffffffffffffffffffffffffffffffffffffffff1663bf92857c306040518263ffffffff1660e01b815260040161051a9190611483565b60c06040518083038186803b15801561053257600080fd5b505afa158015610546573d6000803e3d6000fd5b505050506040513d601f19601f8201168201806040525081019061056a919061133f565b809650819750829850839950849a50859b5050505050505061058d868686610eb5565b610598838383610eb5565b50505050505050565b600083905061066d6040518060400160405280601281526020017f636865636b696e672074686973206f6e773a00000000000000000000000000008152508273ffffffffffffffffffffffffffffffffffffffff166370a08231336040518263ffffffff1660e01b81526004016106189190611483565b60206040518083038186803b15801561063057600080fd5b505afa158015610644573d6000803e3d6000fd5b505050506040513d601f19601f820116820180604052508101906106689190611316565b610f54565b8073ffffffffffffffffffffffffffffffffffffffff166323b872dd3330866040518463ffffffff1660e01b81526004016106aa9392919061149e565b602060405180830381600087803b1580156106c457600080fd5b505af11580156106d8573d6000803e3d6000fd5b505050506040513d601f19601f820116820180604052508101906106fc91906112ed565b61073b576040517f08c379a0000000000000000000000000000000000000000000000000000000008152600401610732906116de565b60405180910390fd5b60008060009054906101000a900473ffffffffffffffffffffffffffffffffffffffff1690508173ffffffffffffffffffffffffffffffffffffffff1663095ea7b360008054906101000a900473ffffffffffffffffffffffffffffffffffffffff16866040518363ffffffff1660e01b81526004016107bc9291906114fe565b602060405180830381600087803b1580156107d657600080fd5b505af11580156107ea573d6000803e3d6000fd5b505050506040513d601f19601f8201168201806040525081019061080e91906112ed565b61084d576040517f08c379a0000000000000000000000000000000000000000000000000000000008152600401610844906116be565b60405180910390fd5b8073ffffffffffffffffffffffffffffffffffffffff1663e8eda9df868630876040518563ffffffff1660e01b815260040161088c949392919061155e565b600060405180830381600087803b1580156108a657600080fd5b505af11580156108ba573d6000803e3d6000fd5b505050505050505050565b60008290506109916040518060400160405280600481526020017f686f6c6f000000000000000000000000000000000000000000000000000000008152508273ffffffffffffffffffffffffffffffffffffffff166370a08231306040518263ffffffff1660e01b815260040161093c9190611483565b60206040518083038186803b15801561095457600080fd5b505afa158015610968573d6000803e3d6000fd5b505050506040513d601f19601f8201168201806040525081019061098c9190611316565b610f54565b8073ffffffffffffffffffffffffffffffffffffffff166323b872dd3330856040518463ffffffff1660e01b81526004016109ce9392919061149e565b602060405180830381600087803b1580156109e857600080fd5b505af11580156109fc573d6000803e3d6000fd5b505050506040513d601f19601f82011682018060405250810190610a2091906112ed565b50610ae86040518060400160405280600481526020017f686f6c6f000000000000000000000000000000000000000000000000000000008152508273ffffffffffffffffffffffffffffffffffffffff166370a08231306040518263ffffffff1660e01b8152600401610a939190611483565b60206040518083038186803b158015610aab57600080fd5b505afa158015610abf573d6000803e3d6000fd5b505050506040513d601f19601f82011682018060405250810190610ae39190611316565b610f54565b505050565b600080829050610c796040518060400160405280601081526020017f73656e646572732062616c616e63653a000000000000000000000000000000008152508273ffffffffffffffffffffffffffffffffffffffff166370a08231336040518263ffffffff1660e01b8152600401610b659190611483565b60206040518083038186803b158015610b7d57600080fd5b505afa158015610b91573d6000803e3d6000fd5b505050506040513d601f19601f82011682018060405250810190610bb59190611316565b6040518060400160405280601381526020017f636f6e747261637427732062616c616e63653a000000000000000000000000008152508473ffffffffffffffffffffffffffffffffffffffff166370a08231306040518263ffffffff1660e01b8152600401610c249190611483565b60206040518083038186803b158015610c3c57600080fd5b505afa158015610c50573d6000803e3d6000fd5b505050506040513d601f19601f82011682018060405250810190610c749190611316565b610ff0565b8073ffffffffffffffffffffffffffffffffffffffff166370a08231306040518263ffffffff1660e01b8152600401610cb29190611483565b60206040518083038186803b158015610cca57600080fd5b505afa158015610cde573d6000803e3d6000fd5b505050506040513d601f19601f82011682018060405250810190610d029190611316565b915050919050565b600084905060008060009054906101000a900473ffffffffffffffffffffffffffffffffffffffff1690508073ffffffffffffffffffffffffffffffffffffffff16635a3b74b98860016040518363ffffffff1660e01b8152600401610d719291906114d5565b600060405180830381600087803b158015610d8b57600080fd5b505af1158015610d9f573d6000803e3d6000fd5b505050508073ffffffffffffffffffffffffffffffffffffffff1663a415bcad87878787306040518663ffffffff1660e01b8152600401610de49594939291906115e8565b600060405180830381600087803b158015610dfe57600080fd5b505af1158015610e12573d6000803e3d6000fd5b505050508173ffffffffffffffffffffffffffffffffffffffff1663a9059cbb33876040518363ffffffff1660e01b8152600401610e519291906114fe565b602060405180830381600087803b158015610e6b57600080fd5b505af1158015610e7f573d6000803e3d6000fd5b505050506040513d601f19601f82011682018060405250810190610ea391906112ed565b610eac57600080fd5b50505050505050565b610f4f838383604051602401610ecd93929190611719565b6040516020818303038152906040527fe7820a74000000000000000000000000000000000000000000000000000000007bffffffffffffffffffffffffffffffffffffffffffffffffffffffff19166020820180517bffffffffffffffffffffffffffffffffffffffffffffffffffffffff8381831617835250505050611092565b505050565b610fec8282604051602401610f6a92919061163b565b6040516020818303038152906040527f9710a9d0000000000000000000000000000000000000000000000000000000007bffffffffffffffffffffffffffffffffffffffffffffffffffffffff19166020820180517bffffffffffffffffffffffffffffffffffffffffffffffffffffffff8381831617835250505050611092565b5050565b61108c8484848460405160240161100a949392919061166b565b6040516020818303038152906040527fa0c4b225000000000000000000000000000000000000000000000000000000007bffffffffffffffffffffffffffffffffffffffffffffffffffffffff19166020820180517bffffffffffffffffffffffffffffffffffffffffffffffffffffffff8381831617835250505050611092565b50505050565b60008151905060006a636f6e736f6c652e6c6f679050602083016000808483855afa5050505050565b6000813590506110ca81611858565b92915050565b6000815190506110df8161186f565b92915050565b6000813590506110f481611886565b92915050565b6000813590506111098161189d565b92915050565b60008151905061111e8161189d565b92915050565b60006020828403121561113657600080fd5b6000611144848285016110bb565b91505092915050565b600080600080600060a0868803121561116557600080fd5b6000611173888289016110bb565b9550506020611184888289016110bb565b9450506040611195888289016110fa565b93505060606111a6888289016110fa565b92505060806111b7888289016110e5565b9150509295509295909350565b600080604083850312156111d757600080fd5b60006111e5858286016110bb565b92505060206111f6858286016110fa565b9150509250929050565b60008060006060848603121561121557600080fd5b6000611223868287016110bb565b9350506020611234868287016110fa565b9250506040611245868287016110bb565b9150509250925092565b60008060006060848603121561126457600080fd5b6000611272868287016110bb565b9350506020611283868287016110fa565b9250506040611294868287016110e5565b9150509250925092565b6000806000606084860312156112b357600080fd5b60006112c1868287016110bb565b93505060206112d2868287016110fa565b92505060406112e3868287016110fa565b9150509250925092565b6000602082840312156112ff57600080fd5b600061130d848285016110d0565b91505092915050565b60006020828403121561132857600080fd5b60006113368482850161110f565b91505092915050565b60008060008060008060c0878903121561135857600080fd5b600061136689828a0161110f565b965050602061137789828a0161110f565b955050604061138889828a0161110f565b945050606061139989828a0161110f565b93505060806113aa89828a0161110f565b92505060a06113bb89828a0161110f565b9150509295509295509295565b6113d18161176c565b82525050565b6113e08161177e565b82525050565b60006113f182611750565b6113fb818561175b565b935061140b8185602086016117c2565b611414816117f5565b840191505092915050565b600061142c600c8361175b565b915061143782611806565b602082019050919050565b600061144f601e8361175b565b915061145a8261182f565b602082019050919050565b61146e8161178a565b82525050565b61147d816117b8565b82525050565b600060208201905061149860008301846113c8565b92915050565b60006060820190506114b360008301866113c8565b6114c060208301856113c8565b6114cd6040830184611474565b949350505050565b60006040820190506114ea60008301856113c8565b6114f760208301846113d7565b9392505050565b600060408201905061151360008301856113c8565b6115206020830184611474565b9392505050565b600060608201905061153c60008301866113c8565b6115496020830185611474565b61155660408301846113c8565b949350505050565b600060808201905061157360008301876113c8565b6115806020830186611474565b61158d60408301856113c8565b61159a6060830184611465565b95945050505050565b60006080820190506115b860008301876113c8565b6115c56020830186611474565b6115d26040830185611474565b6115df60608301846113c8565b95945050505050565b600060a0820190506115fd60008301886113c8565b61160a6020830187611474565b6116176040830186611474565b6116246060830185611465565b61163160808301846113c8565b9695505050505050565b6000604082019050818103600083015261165581856113e6565b90506116646020830184611474565b9392505050565b6000608082019050818103600083015261168581876113e6565b90506116946020830186611474565b81810360408301526116a681856113e6565b90506116b56060830184611474565b95945050505050565b600060208201905081810360008301526116d78161141f565b9050919050565b600060208201905081810360008301526116f781611442565b9050919050565b60006020820190506117136000830184611474565b92915050565b600060608201905061172e6000830186611474565b61173b6020830185611474565b6117486040830184611474565b949350505050565b600081519050919050565b600082825260208201905092915050565b600061177782611798565b9050919050565b60008115159050919050565b600061ffff82169050919050565b600073ffffffffffffffffffffffffffffffffffffffff82169050919050565b6000819050919050565b60005b838110156117e05780820151818401526020810190506117c5565b838111156117ef576000848401525b50505050565b6000601f19601f8301169050919050565b7f4e6f7420617070726f7665640000000000000000000000000000000000000000600082015250565b7f596f7520646f206e6f74206861766520656e6f7567682062616c616e63650000600082015250565b6118618161176c565b811461186c57600080fd5b50565b6118788161177e565b811461188357600080fd5b50565b61188f8161178a565b811461189a57600080fd5b50565b6118a6816117b8565b81146118b157600080fd5b5056fea26469706673582212207fbfd23b0d02ba9a3102957ac7e29a49b6af55c21048669db8a0f757ba89bd9d64736f6c63430008040033",
  "linkReferences": {},
  "deployedLinkReferences": {}
}