{
  "_format": "hh-sol-artifact-1",
  "contractName": "interact",
  "sourceName": "contracts/main.sol",
  "abi": [
    {
      "inputs": [],
      "name": "getstate",
      "outputs": [],
      "stateMutability": "view",
      "type": "function"
    },
    {
      "inputs": [
        {
          "internalType": "address",
          "name": "asset",
          "type": "address"
        },
        {
          "internalType": "address",
          "name": "recieve",
          "type": "address"
        },
        {
          "internalType": "uint256",
          "name": "amount",
          "type": "uint256"
        },
        {
          "internalType": "uint256",
          "name": "interestRateMode",
          "type": "uint256"
        },
        {
          "internalType": "uint16",
          "name": "referralCode",
          "type": "uint16"
        }
      ],
      "name": "iborrow",
      "outputs": [],
      "stateMutability": "nonpayable",
      "type": "function"
    },
    {
      "inputs": [
        {
          "internalType": "address",
          "name": "asset",
          "type": "address"
        },
        {
          "internalType": "uint256",
          "name": "amount",
          "type": "uint256"
        },
        {
          "internalType": "uint256",
          "name": "rateMode",
          "type": "uint256"
        }
      ],
      "name": "irepay",
      "outputs": [],
      "stateMutability": "nonpayable",
      "type": "function"
    },
    {
      "inputs": [
        {
          "internalType": "address",
          "name": "_asset",
          "type": "address"
        },
        {
          "internalType": "uint256",
          "name": "_amount",
          "type": "uint256"
        },
        {
          "internalType": "uint16",
          "name": "_referralCode",
          "type": "uint16"
        }
      ],
      "name": "isupply",
      "outputs": [],
      "stateMutability": "nonpayable",
      "type": "function"
    },
    {
      "inputs": [
        {
          "internalType": "address",
          "name": "asset",
          "type": "address"
        },
        {
          "internalType": "uint256",
          "name": "amount",
          "type": "uint256"
        },
        {
          "internalType": "address",
          "name": "to",
          "type": "address"
        }
      ],
      "name": "iwithdraw",
      "outputs": [],
      "stateMutability": "nonpayable",
      "type": "function"
    },
    {
      "inputs": [
        {
          "internalType": "address",
          "name": "_asset",
          "type": "address"
        }
      ],
      "name": "mybalance",
      "outputs": [
        {
          "internalType": "uint256",
          "name": "",
          "type": "uint256"
        }
      ],
      "stateMutability": "view",
      "type": "function"
    }
  ],
  "bytecode": "0x6080604052737d2768de32b0b80b7a3454c06bdac94a69ddc7a96000806101000a81548173ffffffffffffffffffffffffffffffffffffffff021916908373ffffffffffffffffffffffffffffffffffffffff160217905550737d2768de32b0b80b7a3454c06bdac94a69ddc7a9600160006101000a81548173ffffffffffffffffffffffffffffffffffffffff021916908373ffffffffffffffffffffffffffffffffffffffff16021790555073028171bca77440897b824ca71d1c56cac55b68a3600260006101000a81548173ffffffffffffffffffffffffffffffffffffffff021916908373ffffffffffffffffffffffffffffffffffffffff16021790555034801561010e57600080fd5b506114bc8061011e6000396000f3fe608060405234801561001057600080fd5b50600436106100625760003560e01c8063084525451461006757806311d3f36114610083578063296d9ac21461009f57806330ae82eb146100a95780633c306250146100c55780638620d055146100f5575b600080fd5b610081600480360381019061007c9190610ea0565b610111565b005b61009d60048036038101906100989190610e02565b610323565b005b6100a761047b565b005b6100c360048036038101906100be9190610e51565b61056a565b005b6100df60048036038101906100da9190610d62565b6107c7565b6040516100ec91906112d0565b60405180910390f35b61010f600480360381019061010a9190610d8b565b6109e4565b005b60008390508073ffffffffffffffffffffffffffffffffffffffff166323b872dd3330866040518463ffffffff1660e01b8152600401610153939291906110a0565b602060405180830381600087803b15801561016d57600080fd5b505af1158015610181573d6000803e3d6000fd5b505050506040513d601f19601f820116820180604052508101906101a59190610eef565b6101ae57600080fd5b60008060009054906101000a900473ffffffffffffffffffffffffffffffffffffffff1690508173ffffffffffffffffffffffffffffffffffffffff1663095ea7b360008054906101000a900473ffffffffffffffffffffffffffffffffffffffff16866040518363ffffffff1660e01b815260040161022f929190611100565b602060405180830381600087803b15801561024957600080fd5b505af115801561025d573d6000803e3d6000fd5b505050506040513d601f19601f820116820180604052508101906102819190610eef565b61028a57600080fd5b8073ffffffffffffffffffffffffffffffffffffffff1663573ade81868686306040518563ffffffff1660e01b81526004016102c994939291906111a5565b602060405180830381600087803b1580156102e357600080fd5b505af11580156102f7573d6000803e3d6000fd5b505050506040513d601f19601f8201168201806040525081019061031b9190610f18565b505050505050565b600083905060008060009054906101000a900473ffffffffffffffffffffffffffffffffffffffff1690508073ffffffffffffffffffffffffffffffffffffffff166369328dec8686306040518463ffffffff1660e01b815260040161038b93929190611129565b602060405180830381600087803b1580156103a557600080fd5b505af11580156103b9573d6000803e3d6000fd5b505050506040513d601f19601f820116820180604052508101906103dd9190610f18565b508173ffffffffffffffffffffffffffffffffffffffff1663a9059cbb84866040518363ffffffff1660e01b8152600401610419929190611100565b602060405180830381600087803b15801561043357600080fd5b505af1158015610447573d6000803e3d6000fd5b505050506040513d601f19601f8201168201806040525081019061046b9190610eef565b61047457600080fd5b5050505050565b60008060009054906101000a900473ffffffffffffffffffffffffffffffffffffffff1690506000806000806000808673ffffffffffffffffffffffffffffffffffffffff1663bf92857c306040518263ffffffff1660e01b81526004016104e39190611085565b60c06040518083038186803b1580156104fb57600080fd5b505afa15801561050f573d6000803e3d6000fd5b505050506040513d601f19601f820116820180604052508101906105339190610f41565b809650819750829850839950849a50859b50505050505050610556868686610b8f565b610561838383610b8f565b50505050505050565b60008390508073ffffffffffffffffffffffffffffffffffffffff166323b872dd3330866040518463ffffffff1660e01b81526004016105ac939291906110a0565b602060405180830381600087803b1580156105c657600080fd5b505af11580156105da573d6000803e3d6000fd5b505050506040513d601f19601f820116820180604052508101906105fe9190610eef565b61063d576040517f08c379a0000000000000000000000000000000000000000000000000000000008152600401610634906112b0565b60405180910390fd5b60008060009054906101000a900473ffffffffffffffffffffffffffffffffffffffff1690508173ffffffffffffffffffffffffffffffffffffffff1663095ea7b360008054906101000a900473ffffffffffffffffffffffffffffffffffffffff16866040518363ffffffff1660e01b81526004016106be929190611100565b602060405180830381600087803b1580156106d857600080fd5b505af11580156106ec573d6000803e3d6000fd5b505050506040513d601f19601f820116820180604052508101906107109190610eef565b61074f576040517f08c379a000000000000000000000000000000000000000000000000000000000815260040161074690611290565b60405180910390fd5b8073ffffffffffffffffffffffffffffffffffffffff1663e8eda9df868630876040518563ffffffff1660e01b815260040161078e9493929190611160565b600060405180830381600087803b1580156107a857600080fd5b505af11580156107bc573d6000803e3d6000fd5b505050505050505050565b6000808290506109536040518060400160405280601081526020017f73656e646572732062616c616e63653a000000000000000000000000000000008152508273ffffffffffffffffffffffffffffffffffffffff166370a08231336040518263ffffffff1660e01b815260040161083f9190611085565b60206040518083038186803b15801561085757600080fd5b505afa15801561086b573d6000803e3d6000fd5b505050506040513d601f19601f8201168201806040525081019061088f9190610f18565b6040518060400160405280601381526020017f636f6e747261637427732062616c616e63653a000000000000000000000000008152508473ffffffffffffffffffffffffffffffffffffffff166370a08231306040518263ffffffff1660e01b81526004016108fe9190611085565b60206040518083038186803b15801561091657600080fd5b505afa15801561092a573d6000803e3d6000fd5b505050506040513d601f19601f8201168201806040525081019061094e9190610f18565b610c2e565b8073ffffffffffffffffffffffffffffffffffffffff166370a08231306040518263ffffffff1660e01b815260040161098c9190611085565b60206040518083038186803b1580156109a457600080fd5b505afa1580156109b8573d6000803e3d6000fd5b505050506040513d601f19601f820116820180604052508101906109dc9190610f18565b915050919050565b600085905060008060009054906101000a900473ffffffffffffffffffffffffffffffffffffffff1690508073ffffffffffffffffffffffffffffffffffffffff16635a3b74b98860016040518363ffffffff1660e01b8152600401610a4b9291906110d7565b600060405180830381600087803b158015610a6557600080fd5b505af1158015610a79573d6000803e3d6000fd5b505050508073ffffffffffffffffffffffffffffffffffffffff1663a415bcad87878787306040518663ffffffff1660e01b8152600401610abe9594939291906111ea565b600060405180830381600087803b158015610ad857600080fd5b505af1158015610aec573d6000803e3d6000fd5b505050508173ffffffffffffffffffffffffffffffffffffffff1663a9059cbb33876040518363ffffffff1660e01b8152600401610b2b929190611100565b602060405180830381600087803b158015610b4557600080fd5b505af1158015610b59573d6000803e3d6000fd5b505050506040513d601f19601f82011682018060405250810190610b7d9190610eef565b610b8657600080fd5b50505050505050565b610c29838383604051602401610ba7939291906112eb565b6040516020818303038152906040527fe7820a74000000000000000000000000000000000000000000000000000000007bffffffffffffffffffffffffffffffffffffffffffffffffffffffff19166020820180517bffffffffffffffffffffffffffffffffffffffffffffffffffffffff8381831617835250505050610cd0565b505050565b610cca84848484604051602401610c48949392919061123d565b6040516020818303038152906040527fa0c4b225000000000000000000000000000000000000000000000000000000007bffffffffffffffffffffffffffffffffffffffffffffffffffffffff19166020820180517bffffffffffffffffffffffffffffffffffffffffffffffffffffffff8381831617835250505050610cd0565b50505050565b60008151905060006a636f6e736f6c652e6c6f679050602083016000808483855afa5050505050565b600081359050610d088161142a565b92915050565b600081519050610d1d81611441565b92915050565b600081359050610d3281611458565b92915050565b600081359050610d478161146f565b92915050565b600081519050610d5c8161146f565b92915050565b600060208284031215610d7457600080fd5b6000610d8284828501610cf9565b91505092915050565b600080600080600060a08688031215610da357600080fd5b6000610db188828901610cf9565b9550506020610dc288828901610cf9565b9450506040610dd388828901610d38565b9350506060610de488828901610d38565b9250506080610df588828901610d23565b9150509295509295909350565b600080600060608486031215610e1757600080fd5b6000610e2586828701610cf9565b9350506020610e3686828701610d38565b9250506040610e4786828701610cf9565b9150509250925092565b600080600060608486031215610e6657600080fd5b6000610e7486828701610cf9565b9350506020610e8586828701610d38565b9250506040610e9686828701610d23565b9150509250925092565b600080600060608486031215610eb557600080fd5b6000610ec386828701610cf9565b9350506020610ed486828701610d38565b9250506040610ee586828701610d38565b9150509250925092565b600060208284031215610f0157600080fd5b6000610f0f84828501610d0e565b91505092915050565b600060208284031215610f2a57600080fd5b6000610f3884828501610d4d565b91505092915050565b60008060008060008060c08789031215610f5a57600080fd5b6000610f6889828a01610d4d565b9650506020610f7989828a01610d4d565b9550506040610f8a89828a01610d4d565b9450506060610f9b89828a01610d4d565b9350506080610fac89828a01610d4d565b92505060a0610fbd89828a01610d4d565b9150509295509295509295565b610fd38161133e565b82525050565b610fe281611350565b82525050565b6000610ff382611322565b610ffd818561132d565b935061100d818560208601611394565b611016816113c7565b840191505092915050565b600061102e600c8361132d565b9150611039826113d8565b602082019050919050565b6000611051601e8361132d565b915061105c82611401565b602082019050919050565b6110708161135c565b82525050565b61107f8161138a565b82525050565b600060208201905061109a6000830184610fca565b92915050565b60006060820190506110b56000830186610fca565b6110c26020830185610fca565b6110cf6040830184611076565b949350505050565b60006040820190506110ec6000830185610fca565b6110f96020830184610fd9565b9392505050565b60006040820190506111156000830185610fca565b6111226020830184611076565b9392505050565b600060608201905061113e6000830186610fca565b61114b6020830185611076565b6111586040830184610fca565b949350505050565b60006080820190506111756000830187610fca565b6111826020830186611076565b61118f6040830185610fca565b61119c6060830184611067565b95945050505050565b60006080820190506111ba6000830187610fca565b6111c76020830186611076565b6111d46040830185611076565b6111e16060830184610fca565b95945050505050565b600060a0820190506111ff6000830188610fca565b61120c6020830187611076565b6112196040830186611076565b6112266060830185611067565b6112336080830184610fca565b9695505050505050565b600060808201905081810360008301526112578187610fe8565b90506112666020830186611076565b81810360408301526112788185610fe8565b90506112876060830184611076565b95945050505050565b600060208201905081810360008301526112a981611021565b9050919050565b600060208201905081810360008301526112c981611044565b9050919050565b60006020820190506112e56000830184611076565b92915050565b60006060820190506113006000830186611076565b61130d6020830185611076565b61131a6040830184611076565b949350505050565b600081519050919050565b600082825260208201905092915050565b60006113498261136a565b9050919050565b60008115159050919050565b600061ffff82169050919050565b600073ffffffffffffffffffffffffffffffffffffffff82169050919050565b6000819050919050565b60005b838110156113b2578082015181840152602081019050611397565b838111156113c1576000848401525b50505050565b6000601f19601f8301169050919050565b7f4e6f7420617070726f7665640000000000000000000000000000000000000000600082015250565b7f596f7520646f206e6f74206861766520656e6f7567682062616c616e63650000600082015250565b6114338161133e565b811461143e57600080fd5b50565b61144a81611350565b811461145557600080fd5b50565b6114618161135c565b811461146c57600080fd5b50565b6114788161138a565b811461148357600080fd5b5056fea26469706673582212204899f43d8bc87f6043647cd383f5af105eaab69588c0cb0342655c8b7276762364736f6c63430008040033",
  "linkReferences": {},
  "deployedLinkReferences": {}
}