{
  "_format": "hh-sol-artifact-1",
  "contractName": "interact",
  "sourceName": "contracts/main.sol",
  "abi": [
    {
      "inputs": [],
      "name": "getstate",
      "outputs": [],
      "stateMutability": "view",
      "type": "function"
    },
    {
      "inputs": [
        {
          "internalType": "address",
          "name": "asset",
          "type": "address"
        },
        {
          "internalType": "address",
          "name": "recieve",
          "type": "address"
        },
        {
          "internalType": "uint256",
          "name": "amount",
          "type": "uint256"
        },
        {
          "internalType": "uint256",
          "name": "interestRateMode",
          "type": "uint256"
        },
        {
          "internalType": "uint16",
          "name": "referralCode",
          "type": "uint16"
        }
      ],
      "name": "iborrow",
      "outputs": [],
      "stateMutability": "nonpayable",
      "type": "function"
    },
    {
      "inputs": [
        {
          "internalType": "address",
          "name": "asset",
          "type": "address"
        },
        {
          "internalType": "uint256",
          "name": "amount",
          "type": "uint256"
        },
        {
          "internalType": "uint256",
          "name": "rateMode",
          "type": "uint256"
        }
      ],
      "name": "irepay",
      "outputs": [],
      "stateMutability": "nonpayable",
      "type": "function"
    },
    {
      "inputs": [
        {
          "internalType": "address",
          "name": "_asset",
          "type": "address"
        },
        {
          "internalType": "uint256",
          "name": "_amount",
          "type": "uint256"
        },
        {
          "internalType": "uint16",
          "name": "_referralCode",
          "type": "uint16"
        }
      ],
      "name": "isupply",
      "outputs": [],
      "stateMutability": "nonpayable",
      "type": "function"
    },
    {
      "inputs": [
        {
          "internalType": "address",
          "name": "asset",
          "type": "address"
        },
        {
          "internalType": "uint256",
          "name": "amount",
          "type": "uint256"
        },
        {
          "internalType": "address",
          "name": "to",
          "type": "address"
        }
      ],
      "name": "iwithdraw",
      "outputs": [],
      "stateMutability": "nonpayable",
      "type": "function"
    },
    {
      "inputs": [
        {
          "internalType": "address",
          "name": "_asset",
          "type": "address"
        }
      ],
      "name": "mybalance",
      "outputs": [
        {
          "internalType": "uint256",
          "name": "",
          "type": "uint256"
        }
      ],
      "stateMutability": "view",
      "type": "function"
    }
  ],
  "bytecode": "0x6080604052737d2768de32b0b80b7a3454c06bdac94a69ddc7a96000806101000a81548173ffffffffffffffffffffffffffffffffffffffff021916908373ffffffffffffffffffffffffffffffffffffffff160217905550737d2768de32b0b80b7a3454c06bdac94a69ddc7a9600160006101000a81548173ffffffffffffffffffffffffffffffffffffffff021916908373ffffffffffffffffffffffffffffffffffffffff16021790555073028171bca77440897b824ca71d1c56cac55b68a3600260006101000a81548173ffffffffffffffffffffffffffffffffffffffff021916908373ffffffffffffffffffffffffffffffffffffffff16021790555034801561010e57600080fd5b5061164f8061011e6000396000f3fe608060405234801561001057600080fd5b50600436106100625760003560e01c8063084525451461006757806311d3f36114610083578063296d9ac21461009f57806330ae82eb146100a95780633c306250146100c55780638620d055146100f5575b600080fd5b610081600480360381019061007c9190611003565b610111565b005b61009d60048036038101906100989190610f65565b610323565b005b6100a761047b565b005b6100c360048036038101906100be9190610fb4565b61056a565b005b6100df60048036038101906100da9190610ec5565b61088e565b6040516100ec9190611463565b60405180910390f35b61010f600480360381019061010a9190610eee565b610aab565b005b60008390508073ffffffffffffffffffffffffffffffffffffffff166323b872dd3330866040518463ffffffff1660e01b815260040161015393929190611203565b602060405180830381600087803b15801561016d57600080fd5b505af1158015610181573d6000803e3d6000fd5b505050506040513d601f19601f820116820180604052508101906101a59190611052565b6101ae57600080fd5b60008060009054906101000a900473ffffffffffffffffffffffffffffffffffffffff1690508173ffffffffffffffffffffffffffffffffffffffff1663095ea7b360008054906101000a900473ffffffffffffffffffffffffffffffffffffffff16866040518363ffffffff1660e01b815260040161022f929190611263565b602060405180830381600087803b15801561024957600080fd5b505af115801561025d573d6000803e3d6000fd5b505050506040513d601f19601f820116820180604052508101906102819190611052565b61028a57600080fd5b8073ffffffffffffffffffffffffffffffffffffffff1663573ade81868686306040518563ffffffff1660e01b81526004016102c99493929190611308565b602060405180830381600087803b1580156102e357600080fd5b505af11580156102f7573d6000803e3d6000fd5b505050506040513d601f19601f8201168201806040525081019061031b919061107b565b505050505050565b600083905060008060009054906101000a900473ffffffffffffffffffffffffffffffffffffffff1690508073ffffffffffffffffffffffffffffffffffffffff166369328dec8686306040518463ffffffff1660e01b815260040161038b9392919061128c565b602060405180830381600087803b1580156103a557600080fd5b505af11580156103b9573d6000803e3d6000fd5b505050506040513d601f19601f820116820180604052508101906103dd919061107b565b508173ffffffffffffffffffffffffffffffffffffffff1663a9059cbb84866040518363ffffffff1660e01b8152600401610419929190611263565b602060405180830381600087803b15801561043357600080fd5b505af1158015610447573d6000803e3d6000fd5b505050506040513d601f19601f8201168201806040525081019061046b9190611052565b61047457600080fd5b5050505050565b60008060009054906101000a900473ffffffffffffffffffffffffffffffffffffffff1690506000806000806000808673ffffffffffffffffffffffffffffffffffffffff1663bf92857c306040518263ffffffff1660e01b81526004016104e391906111e8565b60c06040518083038186803b1580156104fb57600080fd5b505afa15801561050f573d6000803e3d6000fd5b505050506040513d601f19601f8201168201806040525081019061053391906110a4565b809650819750829850839950849a50859b50505050505050610556868686610c56565b610561838383610c56565b50505050505050565b60008390506106366040518060400160405280601281526020017f636865636b696e672074686973206f6e773a00000000000000000000000000008152508273ffffffffffffffffffffffffffffffffffffffff166370a08231336040518263ffffffff1660e01b81526004016105e191906111e8565b60206040518083038186803b1580156105f957600080fd5b505afa15801561060d573d6000803e3d6000fd5b505050506040513d601f19601f82011682018060405250810190610631919061107b565b610cf5565b8073ffffffffffffffffffffffffffffffffffffffff166323b872dd3330866040518463ffffffff1660e01b815260040161067393929190611203565b602060405180830381600087803b15801561068d57600080fd5b505af11580156106a1573d6000803e3d6000fd5b505050506040513d601f19601f820116820180604052508101906106c59190611052565b610704576040517f08c379a00000000000000000000000000000000000000000000000000000000081526004016106fb90611443565b60405180910390fd5b60008060009054906101000a900473ffffffffffffffffffffffffffffffffffffffff1690508173ffffffffffffffffffffffffffffffffffffffff1663095ea7b360008054906101000a900473ffffffffffffffffffffffffffffffffffffffff16866040518363ffffffff1660e01b8152600401610785929190611263565b602060405180830381600087803b15801561079f57600080fd5b505af11580156107b3573d6000803e3d6000fd5b505050506040513d601f19601f820116820180604052508101906107d79190611052565b610816576040517f08c379a000000000000000000000000000000000000000000000000000000000815260040161080d90611423565b60405180910390fd5b8073ffffffffffffffffffffffffffffffffffffffff1663e8eda9df868630876040518563ffffffff1660e01b815260040161085594939291906112c3565b600060405180830381600087803b15801561086f57600080fd5b505af1158015610883573d6000803e3d6000fd5b505050505050505050565b600080829050610a1a6040518060400160405280601081526020017f73656e646572732062616c616e63653a000000000000000000000000000000008152508273ffffffffffffffffffffffffffffffffffffffff166370a08231336040518263ffffffff1660e01b815260040161090691906111e8565b60206040518083038186803b15801561091e57600080fd5b505afa158015610932573d6000803e3d6000fd5b505050506040513d601f19601f82011682018060405250810190610956919061107b565b6040518060400160405280601381526020017f636f6e747261637427732062616c616e63653a000000000000000000000000008152508473ffffffffffffffffffffffffffffffffffffffff166370a08231306040518263ffffffff1660e01b81526004016109c591906111e8565b60206040518083038186803b1580156109dd57600080fd5b505afa1580156109f1573d6000803e3d6000fd5b505050506040513d601f19601f82011682018060405250810190610a15919061107b565b610d91565b8073ffffffffffffffffffffffffffffffffffffffff166370a08231306040518263ffffffff1660e01b8152600401610a5391906111e8565b60206040518083038186803b158015610a6b57600080fd5b505afa158015610a7f573d6000803e3d6000fd5b505050506040513d601f19601f82011682018060405250810190610aa3919061107b565b915050919050565b600084905060008060009054906101000a900473ffffffffffffffffffffffffffffffffffffffff1690508073ffffffffffffffffffffffffffffffffffffffff16635a3b74b98860016040518363ffffffff1660e01b8152600401610b1292919061123a565b600060405180830381600087803b158015610b2c57600080fd5b505af1158015610b40573d6000803e3d6000fd5b505050508073ffffffffffffffffffffffffffffffffffffffff1663a415bcad87878787306040518663ffffffff1660e01b8152600401610b8595949392919061134d565b600060405180830381600087803b158015610b9f57600080fd5b505af1158015610bb3573d6000803e3d6000fd5b505050508173ffffffffffffffffffffffffffffffffffffffff1663a9059cbb33876040518363ffffffff1660e01b8152600401610bf2929190611263565b602060405180830381600087803b158015610c0c57600080fd5b505af1158015610c20573d6000803e3d6000fd5b505050506040513d601f19601f82011682018060405250810190610c449190611052565b610c4d57600080fd5b50505050505050565b610cf0838383604051602401610c6e9392919061147e565b6040516020818303038152906040527fe7820a74000000000000000000000000000000000000000000000000000000007bffffffffffffffffffffffffffffffffffffffffffffffffffffffff19166020820180517bffffffffffffffffffffffffffffffffffffffffffffffffffffffff8381831617835250505050610e33565b505050565b610d8d8282604051602401610d0b9291906113a0565b6040516020818303038152906040527f9710a9d0000000000000000000000000000000000000000000000000000000007bffffffffffffffffffffffffffffffffffffffffffffffffffffffff19166020820180517bffffffffffffffffffffffffffffffffffffffffffffffffffffffff8381831617835250505050610e33565b5050565b610e2d84848484604051602401610dab94939291906113d0565b6040516020818303038152906040527fa0c4b225000000000000000000000000000000000000000000000000000000007bffffffffffffffffffffffffffffffffffffffffffffffffffffffff19166020820180517bffffffffffffffffffffffffffffffffffffffffffffffffffffffff8381831617835250505050610e33565b50505050565b60008151905060006a636f6e736f6c652e6c6f679050602083016000808483855afa5050505050565b600081359050610e6b816115bd565b92915050565b600081519050610e80816115d4565b92915050565b600081359050610e95816115eb565b92915050565b600081359050610eaa81611602565b92915050565b600081519050610ebf81611602565b92915050565b600060208284031215610ed757600080fd5b6000610ee584828501610e5c565b91505092915050565b600080600080600060a08688031215610f0657600080fd5b6000610f1488828901610e5c565b9550506020610f2588828901610e5c565b9450506040610f3688828901610e9b565b9350506060610f4788828901610e9b565b9250506080610f5888828901610e86565b9150509295509295909350565b600080600060608486031215610f7a57600080fd5b6000610f8886828701610e5c565b9350506020610f9986828701610e9b565b9250506040610faa86828701610e5c565b9150509250925092565b600080600060608486031215610fc957600080fd5b6000610fd786828701610e5c565b9350506020610fe886828701610e9b565b9250506040610ff986828701610e86565b9150509250925092565b60008060006060848603121561101857600080fd5b600061102686828701610e5c565b935050602061103786828701610e9b565b925050604061104886828701610e9b565b9150509250925092565b60006020828403121561106457600080fd5b600061107284828501610e71565b91505092915050565b60006020828403121561108d57600080fd5b600061109b84828501610eb0565b91505092915050565b60008060008060008060c087890312156110bd57600080fd5b60006110cb89828a01610eb0565b96505060206110dc89828a01610eb0565b95505060406110ed89828a01610eb0565b94505060606110fe89828a01610eb0565b935050608061110f89828a01610eb0565b92505060a061112089828a01610eb0565b9150509295509295509295565b611136816114d1565b82525050565b611145816114e3565b82525050565b6000611156826114b5565b61116081856114c0565b9350611170818560208601611527565b6111798161155a565b840191505092915050565b6000611191600c836114c0565b915061119c8261156b565b602082019050919050565b60006111b4601e836114c0565b91506111bf82611594565b602082019050919050565b6111d3816114ef565b82525050565b6111e28161151d565b82525050565b60006020820190506111fd600083018461112d565b92915050565b6000606082019050611218600083018661112d565b611225602083018561112d565b61123260408301846111d9565b949350505050565b600060408201905061124f600083018561112d565b61125c602083018461113c565b9392505050565b6000604082019050611278600083018561112d565b61128560208301846111d9565b9392505050565b60006060820190506112a1600083018661112d565b6112ae60208301856111d9565b6112bb604083018461112d565b949350505050565b60006080820190506112d8600083018761112d565b6112e560208301866111d9565b6112f2604083018561112d565b6112ff60608301846111ca565b95945050505050565b600060808201905061131d600083018761112d565b61132a60208301866111d9565b61133760408301856111d9565b611344606083018461112d565b95945050505050565b600060a082019050611362600083018861112d565b61136f60208301876111d9565b61137c60408301866111d9565b61138960608301856111ca565b611396608083018461112d565b9695505050505050565b600060408201905081810360008301526113ba818561114b565b90506113c960208301846111d9565b9392505050565b600060808201905081810360008301526113ea818761114b565b90506113f960208301866111d9565b818103604083015261140b818561114b565b905061141a60608301846111d9565b95945050505050565b6000602082019050818103600083015261143c81611184565b9050919050565b6000602082019050818103600083015261145c816111a7565b9050919050565b600060208201905061147860008301846111d9565b92915050565b600060608201905061149360008301866111d9565b6114a060208301856111d9565b6114ad60408301846111d9565b949350505050565b600081519050919050565b600082825260208201905092915050565b60006114dc826114fd565b9050919050565b60008115159050919050565b600061ffff82169050919050565b600073ffffffffffffffffffffffffffffffffffffffff82169050919050565b6000819050919050565b60005b8381101561154557808201518184015260208101905061152a565b83811115611554576000848401525b50505050565b6000601f19601f8301169050919050565b7f4e6f7420617070726f7665640000000000000000000000000000000000000000600082015250565b7f596f7520646f206e6f74206861766520656e6f7567682062616c616e63650000600082015250565b6115c6816114d1565b81146115d157600080fd5b50565b6115dd816114e3565b81146115e857600080fd5b50565b6115f4816114ef565b81146115ff57600080fd5b50565b61160b8161151d565b811461161657600080fd5b5056fea26469706673582212206c23a303d8022610d80da428447df7b00a69674841bba6233b11c94bc732ccd064736f6c63430008040033",
  "linkReferences": {},
  "deployedLinkReferences": {}
}